:020000040800F2
:100000006F00402F00000000000000000000000012
:10001000000000000000000000000000F0080008E0
:1000200000000000000000000000000000000000D0
:1000300000000000000000000000000000000000C0
:1000400000000000000000000000000000000000B0
:1000500000000000000000000000000000000000A0
:100060000000000000000000000000000000000090
:100070000000000000000000000000000000000080
:100080000000000000000000000000000000000070
:100090000000000000000000000000000000000060
:1000A0000000000000000000000000000000000050
:1000B0000000000000000000000000000000000040
:1000C0000000000000000000000000000000000030
:1000D0000000000000000000000000000000000020
:1000E0000000000000000000000000000000000010
:1000F0000000000000000000000000000000000000
:1001000000000000000000000000000000000000EF
:1001100000000000000000000000000000000000DF
:1001200000000000000000000000000000000000CF
:1001300000000000000000000000000000000000BF
:1001400000000000000000000000000000000000AF
:10015000000000000000000000000000000000009F
:10016000000000000000000000000000000000008F
:10017000000000000000000000000000000000007F
:10018000000000000000000000000000000000006F
:10019000000000000000000000000000000000005F
:1001A000000000000000000000000000000000004F
:1001B000000000000000000000000000000000003F
:1001C000000000000000000000000000000000002F
:0201D00000002D
:0C01D200411106C61926B240410182808E
:1001DE0041112307A1000345E100A307A100034538
:0E01EE00F100B70500D2A385A5004101828073
:0401FC000068890905
:100200005D7106C012C216C41AC61EC82ACA2ECCF8
:1002100032CE36D03AD23ED442DC46DEF2C0F6C20E
:10022000FAC4FEC673D0E57E7350F67E73D0B67EF8
:10023000732520348A85B92DD2527390427CC252E4
:1002400073901234B2527390223482401242A2420E
:100250003243C2435245E245724682561257A25774
:100260006258F258064E964E264FB64F61617300A3
:0C02700020300000000000000000000032
:10027C005D7106C012C216C41AC61EC82ACA2ECC7C
:10028C0032CE36D03AD23ED442DC46DEF2C0F6C292
:10029C00FAC4FEC673D0E57E7350F67E73D0B67E7C
:1002AC00F390D07E73700430D2527390427CC25261
:1002BC0073901234B2527390223482401242A24292
:1002CC003243C2435245E245724682561257A257F8
:1002DC006258F258064E964E264FB64F6161730027
:0602EC00203001A000001B
:1002F400B711002093810180371200081302629F16
:10030400B7020520138102009302002073A0027D2E
:10031400B7020008938202007390723093026288DD
:100324007390C27E73E0C07E9302A28073905230B9
:100334009302F00373B0523073E05130996273A0AA
:1003440002307310300073F0023273102034D9205D
:08035400130302AD0293000047
:10035C00411106C6B745024003A50580136515007B
:10036C0023A0A58003A58580719923A4A5800145B0
:10037C0023A4A58003A60580B7069FFFFD16758EE6
:10038C0023A0C58023A2A58023A2A58837068007B9
:10039C0023AAC58823A6A5803D35B24041018280A1
:1003AC004111A305A1000345B1002AC6B70500D22F
:1003BC0003C505001375150E2380A50032450605EF
:1003CC001376E50103C50500518D2380A50041017D
:0203DC0082801D
:1003DE0041112AC62EC4B2452D45636DB5000145A7
:1003EE0011E92245B2451396250093850180B295F9
:1003FE0088C111A832458565FD156316B5002245E5
:0A040E009385018088D941018280A6
:10041800411106C6813705452AC212457320A57CBD
:100428000D299305A2E405657D15753701456533EA
:1004380009458D3FD12A15452AC422457320053226
:06044800B2404101828078
:10044E00411106C601452AC4F121B745024003A554
:10045E0005831365450023A8A582B71502402EC259
:10046E0003A50580370600F47D16718D23A0A580A7
:10047E0003A50580B7060004558D23A0A58003A50E
:10048E00C580718D23A6A58003A5C58023A6A58052
:10049E0003A54580F976FD16758D23A2A58003A5CB
:1004AE008580718D23A4A58003A58580370600085D
:0804BE00518D23A4A58001A0CB
:1004C600371400081304049A084011040295EDBF7E
:0604D600A53F09A001A0F2
:1004DC00011101452ACE2ACC3746024083250680DD
:1004EC00B7060010D58D2320B68083250680C16603
:1004FC00D58D2320B6802ACA5245358109E552454F
:10050C0005052ACAD5BFB745024003A505803706A5
:10051C000080518D23A0A580724505052ACE374554
:10052C00024003250580B70502006D8D2ACC62457B
:10053C0081452EC801E97245C165FD152D8D3335F8
:10054C00A0002AC84245058961F9374502400325B8
:10055C0005803A056343050001A0B74502402EC64D
:10056C0003A5858023A4A58003A5858023A4A5804D
:10057C0003A585800566518D23A4A58003A5458020
:10058C002166518D23A2A5803706000323AAC588B6
:10059C0003A54588518D23A2A58803A54588370658
:1005AC000008518D23A2A58803A5C588370608002D
:1005BC00518D23A6A58803A5058037063000518DE3
:1005CC0023A0A580374502400325058022056343FF
:1005DC000500CDBFB745024003A58580719923A4C2
:1005EC00A58003A585801365250023A4A580374528
:1005FC000240032585803189A1456303B500C5BF41
:04060C000561828082
:10061000411121452AC632457320053041018280AF
:1006200001112305A100A304B1002304C1008345E7
:10063000A10003459100A308B1002308A1003705DC
:1006400000D2034505006E057181A307A100114585
:100650002307A1000345F10011E155A88345F100EE
:100660000345E1006356B5000345E100A307A1007F
:100670008345F10005453315B5007D15A306A1009E
:10068000834501010345D1006356B5000345D10000
:100690002308A100034501010346F100A145918D06
:1006A0003315B5002306A10003451101A30DA100D8
:1006B0000345B1010A05B71500D213863500518DE7
:1006C00003450500A305A1000345B1008345F100E2
:1006D0003315B500A305A1000345B1008345F10022
:1006E0003355B500A305A100834511010345B100B1
:1006F0008346C100558DA30FB100230FA100034510
:10070000E1018345F1018A05D18D2380A500834550
:10071000A10003458100230CB100A30BA100370504
:1007200000D2034505006E057181230BA100114520
:10073000A30AA10003456101834551016357B50C2C
:100740000345510183456101B305B54005453315A6
:10075000B5007D15230AA1008345710103454101C0
:100760006356B50003454101A30BA1000345710188
:1007700003465101A1453386C5403315C500A30B7F
:10078000A100034651011305F00F3355C500A3091D
:10079000A1000345710103463101518DA30BA10056
:1007A00003458101230DA1000345A1010A05371668
:1007B00000D20D06518D034505002309A100034514
:1007C000210183466101B386D5403355D500230905
:1007D000A1000345210183466101958D3315B500C4
:1007E0002309A1008345810103452101834671014D
:1007F000558DA30EB100230EA1000345C101834511
:10080000D1018A05D18D2380A5000345A100A30C49
:10081000A100034591010A05B71500D28505C98DD0
:1008200003C50500136515002380A50005618280BE
:1008300041112AC62EC42245B245C8D54101828045
:0E084000411106C62AC42EC21245112001A085
:0C084E0041112AC632452AC441018280B3
:10085A00411101452AC6B2453145634FB5003245BB
:10086A009315250013850180AA95130502E988C10D
:0C087A00324505052AC6C5B74101828041
:0E088600411106C62AC42EC212457D3F01A0B4
:10089400011106CE2ACC2ECA6245520551812AC8BE
:1008A400C2452D45636DB500014511E942459315D7
:1008B4002500138501802E9508412AC631A842459A
:1008C4008565FD156317B5001385018008592AC68F
:1008D40021A0130502E92AC6324509C532466245FC
:0C08E400D24502960145F2400561828079
:1008F000411106C683A54183850523AAB18203A5BC
:1009000041839305803E636BB500371502401305A4
:1009100005808965313F014523AAA182B24041018A
:020920008280D3
:10092200011106CE09452AC21245B71500D123ACE2
:10093200A5FE03A58183B7556210938535DD333556
:10094200B5022181014632C62AC42245B246B70504
:1009520000D1D4C588C51D45A30DA10085452ECA69
:100962008345B1018A05B71600D2890633E7D5005F
:100972008345070093F5950F2300B700D2451397DF
:1009820015008345B1018A05CD8E83C50600D98D38
:0E0992002380B600B2856131F240056182809B
:1009A000C00900080000002038000000D409000839
:1009B00038000020FC01000804000000D6040008F4
:1009C00008404C40210491C5230005000505FD1594
:0409D000E5FD82803F
:1009D40008404C401044310409CA838605002300B2
:0C09E400D500050585057D166DFA8280A2
:04000005080002F4F9
:00000001FF
